:020000040800F2
:1000000000280020E5050008890500088F05000884
:10001000950500089B050008A105000800000000E8
:10002000000000000000000000000000A70500081C
:10003000B305000800000000BF050008CB0500085C
:100040002D0600082D0600082D0600082D060008C4
:100050002D0600082D0600082D0600082D060008B4
:100060002D0600082D0600082D0600082D060008A4
:100070002D0600082D0600082D0600082D06000894
:100080002D0600082D0600082D0600082D06000884
:100090002D0600082D0600082D0600082D06000874
:1000A0002D0600082D0600082D0600082D06000864
:1000B0002D0600082D060008000000002D0600088F
:1000C0002D06000800000000000000002D060008BA
:1000D000000000002D0600082D06000800000000AA
:1000E0002D0600082D0600082D060008000000005F
:1000F0000000000000000000000000000000000000
:0C01000000000000000000005FF808F1A3
:10010C0010B5054C237833B9044B13B10448AFF345
:10011C0000800123237010BD0000002000000000AF
:10012C00700B000808B5034B1BB103490348AFF330
:10013C00008008BD0000000004000020700B0008C7
:10014C0080B485B000AF78607B6803F00703FB6078
:10015C000C4BDB68BB60BA684FF6FF031340BB6007
:10016C00FB681A02BB68134343F0BF6343F40033CC
:10017C00BB60044ABB68D36000BF1437BD4680BC6B
:10018C00704700BF00ED00E080B400AF044BDB68AB
:10019C001B0A03F007031846BD4680BC704700BF1E
:1001AC0000ED00E080B483B000AF03463960FB7112
:1001BC0097F90730002B0ADB3B68DAB20C4997F948
:1001CC0007301201D2B20B4483F800230AE03B68DB
:1001DC00DAB20849FB7903F00F03043B1201D2B2E7
:1001EC000B441A7600BF0C37BD4680BC704700BF6D
:1001FC0000E100E000ED00E080B489B000AFF860F1
:10020C00B9607A60FB6803F00703FB61FB69C3F11B
:10021C000703042B28BF0423BB61FB690433062BA3
:10022C0002D9FB69033B00E000237B614FF0FF32F6
:10023C00BB6902FA03F3DA43BB681A407B699A4044
:10024C004FF0FF317B6901FA03F3D9437B680B4014
:10025C00134318462437BD4680BC704780B400AFAA
:10026C00044B1B68034A43F00103136000BFBD46F7
:10027C0080BC70470010024080B400AF064B1B6876
:10028C0003F00203022B0CBF01230023DBB2184640
:10029C00BD4680BC704700BF0010024080B483B0E4
:1002AC0000AF7860064B1B6823F0F8027B68DB001C
:1002BC00034913430B6000BF0C37BD4680BC70472D
:1002CC000010024080B483B000AF7860064B5B68CE
:1002DC0023F0030204497B6813434B6000BF0C37C7
:1002EC00BD4680BC704700BF0010024080B400AF18
:1002FC00034B5B6803F00C031846BD4680BC70478B
:10030C000010024080B483B000AF7860064B5B688D
:10031C0023F0F00204497B6813434B6000BF0C3799
:10032C00BD4680BC704700BF0010024080B483B053
:10033C0000AF7860064B5B6823F4E06204497B688D
:10034C0013434B6000BF0C37BD4680BC704700BFE9
:10035C000010024080B483B000AF7860064B5B683D
:10036C0023F4605204497B6813434B6000BF0C3785
:10037C00BD4680BC704700BF0010024080B485B001
:10038C0000AF7860084BDA6907497B681343CB618F
:10039C00054BDA697B681340FB60FB6800BF1437C0
:1003AC00BD4680BC704700BF0010024080B485B0D1
:1003BC0000AF7860084B9A6907497B6813438B61DF
:1003CC00054B9A697B681340FB60FB6800BF1437D0
:1003DC00BD4680BC704700BF0010024080B483B0A3
:1003EC0000AF7860064B1B6823F0070204497B685A
:1003FC0013430B6000BF0C37BD4680BC704700BF79
:10040C000020024080B400AF034B1B6803F00703CD
:10041C001846BD4680BC70470020024080B483B0B3
:10042C0000AF786039603B681B0A9AB27B681A612E
:10043C0000BF0C37BD4680BC704780B483B000AFA2
:10044C00786039603B681B0A9AB27B685A6100BFBE
:10045C000C37BD4680BC704780B500AF0120FFF75C
:10046C00A5FF4FF08050FFF789FF0320FFF768FED0
:10047C00FFF78AFE034600220F211846FFF7BCFE49
:10048C00034619464FF0FF30FFF78CFE00F018F8CA
:10049C0000F04CF840F202210848FFF7BFFF4CF285
:1004AC00503000F017FB40F202210448FFF7C5FF63
:1004BC004CF2503000F00EFBECE700BF000801409E
:1004CC0080B584B000AF0020FFF788FF00BFFFF7B6
:1004DC0099FF0346002BFAD11020FFF7DFFEFFF740
:1004EC00BDFE00BFFFF7C8FE0346012BFAD100206A
:1004FC00FFF708FF0020FFF719FF0020FFF72AFF86
:10050C000020FFF7DFFE00BFFFF7F0FE0346002BD5
:10051C00FAD13B46184600F0F9F97B68184600F012
:10052C00CBFA00BF1037BD4680BD000080B586B049
:10053C0000AF3B1D00221A605A609A60DA601A61A3
:10054C000420FFF733FF40F202210B48FFF775FF41
:10055C0040F202237B600123BB600323FB6000237A
:10056C003B6101237B613B1D1946034800F011F9E7
:10057C0000BF1837BD4680BD0008014080B400AFF5
:10058C00FEE780B400AFFEE780B400AFFEE780B4B6
:10059C0000AFFEE780B400AFFEE780B400AF00BF51
:1005AC00BD4680BC704780B400AF00BFBD4680BC68
:1005BC00704780B400AF00BFBD4680BC704780B4AC
:1005CC0000AF00BFBD4680BC704780B400AF00BF19
:1005DC00BD4680BC70470000FFF7F7FF0B480C4985
:1005EC000C4A002302E0D458C4500433C4188C4283
:1005FC00F9D3094A094C002301E013600432A242EA
:10060C00FBD300F08BFAFFF727FF704700000020A8
:10061C0000000020A80B0008000000201C00002097
:10062C00FEE790B488B000AFF860B9607A60FB6800
:10063C001A46BB681B0E13441C462268BB687B61C0
:10064C007B6993FAA3F33B613B69B3FA83F3DBB2A7
:10065C009B000F2101FA03F3DB431A40BB68FB61DB
:10066C00FB6993FAA3F3BB61BB69B3FA83F3DBB207
:10067C009B00796801FA03F31343236000BF203712
:10068C00BD4690BC704790B488B000AFF860B960BC
:10069C007A60FB681A46BB681B0E13441C46226822
:1006AC00BB687B617B6993FAA3F33B613B69B3FA4B
:1006BC0083F3DBB29B00032101FA03F3DB431A4003
:1006CC00BB68FB61FB6993FAA3F3BB61BB69B3FA2B
:1006DC0083F3DBB29B00796801FA03F313432360C5
:1006EC0000BF2037BD4690BC704790B488B000AFB7
:1006FC00F860B9607A60FB681A46BB681B0E13443D
:10070C001C462268BB687B617B6993FAA3F33B614F
:10071C003B69B3FA83F3DBB29B00042101FA03F3C8
:10072C00DB431A40BB68FB61FB6993FAA3F3BB6123
:10073C00BB69B3FA83F3DBB29B00796801FA03F36C
:10074C001343236000BF2037BD4690BC704780B474
:10075C0087B000AFF860B9607A60FB68DA68BB6894
:10076C001B0ADB431A40BB681B0A7B617B6993FA4B
:10077C00A3F33B613B69B3FA83F3DBB219467B68A5
:10078C008B401A43FB68DA6000BF1C37BD4680BC47
:10079C00704780B588B000AF786039603B681B68E3
:1007AC001B021B0C7B617B693B613B6993FAA3F3D6
:1007BC00FB60FB68B3FA83F3DBB2FB6144E001221C
:1007CC00FB699A407B691340002B3AD0FB69072BDD
:1007DC0006D840F20112FB6902FA03F3BB6108E090
:1007EC00FB69083B4FF0011202FA03F343F08063FC
:1007FC00BB613B685B68082B06D13B681B691A46DA
:10080C00B9697868FFF7A3FF3B685B681A46B9695A
:10081C007868FFF706FF3B685B68012B03D03B68E9
:10082C005B68092B0DD13B689B681A46B9697868DF
:10083C00FFF729FF3B68DB681A46B9697868FFF750
:10084C0054FFFB690133FB617A69FB6922FA03F3FC
:10085C00002BB4D1002318462037BD4680BD0000C4
:10086C0080B400AF034B5B6803F00C031846BD4625
:10087C0080BC70470010024080B400AF034B5B6833
:10088C0003F0F0031846BD4680BC704700100240D0
:10089C0080B400AF034B5B6803F4E0631846BD46BD
:1008AC0080BC70470010024080B400AF034B5B6803
:1008BC0003F460531846BD4680BC704700100240DC
:1008CC0080B400AF034B5B6803F480331846BD461D
:1008DC0080BC70470010024080B400AF034B5B68D3
:1008EC0003F470131846BD4680BC704700100240DC
:1008FC0080B400AF044B5B685B0C03F0010318463B
:10090C00BD4680BC704700BF0010024080B582B06D
:10091C0000AF786000F020F802467B681A607B68B4
:10092C001B68184600F03EF802467B685A607B68EC
:10093C005B68184600F04CF802467B689A607B684E
:10094C005B68184600F058F802467B68DA6000BF16
:10095C000837BD4680BD000080B582B000AF0023D3
:10096C007B60FFF77DFF0346082B0CD0082B0ED8BD
:10097C00002B02D0042B03D009E0094B7B6009E06B
:10098C00074B7B6006E000F04BF8786002E0044B0C
:10099C007B6000BF7B6818460837BD4680BD00BF32
:1009AC0000127A0080B582B000AF7860FFF764FF68
:1009BC0003461B0903F00F03044AD35C1A467B68F9
:1009CC00D34018460837BD4680BD00BF880B0008D1
:1009DC0080B582B000AF7860FFF75AFF03461B0A60
:1009EC00044AD35C1A467B68D34018460837BD4688
:1009FC0080BD00BF980B000880B582B000AF786056
:100A0C00FFF752FF0346DB0A044AD35C1A467B68A5
:100A1C00D34018460837BD4680BD00BF980B000870
:100A2C0080B582B000AF00237B6000233B60FFF7F2
:100A3C0047FF38603B68002B04D03B68B3F5803F20
:100A4C0003D00BE00D4B7B600BE0FFF751FF03462F
:100A5C0001330B4AB2FBF3F37B6002E0074B7B6084
:100A6C0000BFFFF739FF03469B0C02337A6802FB89
:100A7C0003F318460837BD4680BD00BF00093D0092
:100A8C0000127A0080B483B000AF786039607A6865
:100A9C003B68B2FBF3F3074A013B5360054B002262
:100AAC009A60044B05221A6000BF0C37BD4680BC0F
:100ABC00704700BF10E000E080B582B000AF7860F6
:100ACC004FF47A717868FFF7DDFF00BF0837BD4639
:100ADC0080BD000080B485B000AF78600E4B1B6801
:100AEC00FB60FB687B68B3F1FF3F0CD07B68013384
:100AFC007B6008E0084B1B6803F48033002B02D0AA
:100B0C007B68013B7B607B68002BF3D100BF00BF8F
:100B1C001437BD4680BC704710E000E070B500266D
:100B2C000C4D0D4C641BA410A64209D100F01AF810
:100B3C0000260A4D0A4C641BA410A64205D170BDB8
:100B4C0055F8043B98470136EEE755F8043B9847B7
:100B5C000136F2E7A00B0008A00B0008A00B000860
:100B6C00A40B0008F8B500BFF8BC08BC9E46704743
:0C0B7C00F8B500BFF8BC08BC9E467047EE
:100B88000000000000000000010203040607080935
:080B980000000000010203044B
:040BA0003101000817
:040BA4000D01000837
:04000005080005E505
:00000001FF
